:020000040000FA
:040000005EEF01F0BE
:100008003E6ED8CF3FF0E0CF40F0F2A40AD0800E89
:10001800D56E3D0ED76EB00ED66EF2942F2A010E15
:10002800306E9EAA13D0AECF7FF00D0E7F6204D043
:10003800310E396ED7D80AD07F50060AD8B406D008
:1000480039C0E9FFEA6A7FC0EFFF392A3FC0D8FF0D
:1000580040C0E0FF3E501000E806000AD8A4FCD7D4
:1000680012000B6E949494969498949A9490949207
:10007800829241A202D0829001D082800BA802D045
:10008800828401D082940BAA02D0828601D0829603
:100098000BAC02D0828801D082980BAE02D0828A43
:1000A80001D0829A8282020ED7DF82928294000067
:1000B8008296000082980000829A050ECDD70A6ABF
:1000C8004190419282920A5007240B6E000E08203C
:1000D8000C6EA6D9096E0A2A0952D8B429D04192C1
:1000E800093C02D0417024D0419209BE418241B0FE
:1000F8004182030E09644182F00E0914B2DF41A067
:1001080009D0280E096206D00C0E0B6E000EA4DF73
:100118000B2EFCD70938F00BA4DF040E096006D0BB
:100128000C0E0B6E000E98DF0B2EFCD7140E94DF0E
:100138000952D8A4C8D71200050E0A6E0750081035
:10014800D8A406D00A06EA6A0A500924E96EEF6ABA
:1001580007500810D8B437D00A06EA6A0A500924AA
:10016800E96E07500C6E08500D6EEF6A100E0B6E9C
:100178000C360D36EF36D8B004D00A0EEF5CD8A096
:1001880002D00A0EEF5E0B2EF3D7EA6A0A50092452
:10019800E96E300EEF2607500C6E08500D6E0E6A91
:1001A800100E0B6E0C360D360E36D8B004D00A0E73
:1001B8000E5CD8A003D00A0E0E5ED880073608362B
:1001C8000B2EF0D7C5D70A52D8B408D00A06EA6A67
:1001D8000A500924E96E200EEF6EF5D7050E0926A0
:1001E80009501200426A3C6A3D6A050E426015D009
:1001F8003D500A0DF3CF3DF03C500A0DF3CF3CF0D3
:10020800F4503D26EA6A310E4224E96E300EEF5C66
:100218003C26000E3D22422AE8D7E90E3C5C030E3C
:100228003D58D8A004D0E80E3C6E030E3D6E120077
:10023800C10EC26E0E0EC16E1200C284C2B4FED7C9
:100248001200939093929280949C948E1200949CA6
:10025800948EAC84190EAF6EAC8AAB88AB8E12004C
:10026800F28AF194F2949D8A9E9A9F9AD09EF28E79
:10027800F28C120008C00BF009C00CF0D1D80A6E3D
:1002880007C0E9FFEA6A0AC0EFFF072A082A000E3A
:1002980009220A52D8A4EED7070607501200435283
:1002A800D8A402D0819001D08180432A0A0E4360ED
:1002B800436A1200D5DFC5DFCADFBADF306A818240
:1002C800F2842F6A310E396E3B6A006A016A026A4B
:1002D800036A3C6A3D6AC80E076EFA0EBDDE072E39
:1002E800FCD7076A800E086EEADE090E076E800EDC
:1002F800086EE5DE320E2F648DD00F0E076E150ED8
:10030800086E800E096EB6DF066E3C50E808026E75
:10031800030E3D54036E0A0E046E056A0250086E01
:100328000350096E0A6A0B6A100E076E0836093602
:100338000A360B3604500A5C05500B58D8A005D075
:1003480004500A5E05500B5AD88002360336072E31
:10035800EDD702C007F003C008F006C009F0ECDED4
:10036800066E06C0E9FFEA6A250EEF6E062A06C089
:10037800E9FFEA6A0D0EEF6E0F0E076E086A9FDE40
:100388005CDFC4CF00F0016A0150640DF3CF01F0C7
:100398000050640DF3CF00F0F45001260050086EB1
:1003A8000150096E0A6A100E076E083609360A36B9
:1003B800D8B002D00A3C02D00A2AD88000360136CA
:1003C800072EF3D71F0E076E1F0E086E800E096EDC
:1003D80051DF066E00C007F001C008F006C009F042
:1003E800ABDE066E06C0E9FFEA6A250EEF6E062A46
:1003F80006C0E9FFEA6AEF6A1F0E076E086A5FDE49
:100408000050025C01500358D8B002D0819201D04C
:1004180081822F6A3052D8B46DD741DF306A6AD7EB
:100428000CBE06D00B50E96E0C50EA6EEF5012006D
:100438000B504C0FF66E040EF76AF722F86A0800A4
:10044800F5501200FF02822801030C060080576550
:100458006C636F6D652E2E2E00804C20576174657D
:0E046800723D00C04C20504F5420203D00003B
:00000001FF
