:020000040000FA
:1000000079EF00F0939093929384949C948E1200D5
:10001000949C948EAC84190EAF6EAC8AAB88AB8E78
:1000200012001852D8A402D0819001D08180182AE1
:100030000A0E1860186A1200200E7F6E7F2EFED7FF
:100040001200300E0E6E110E0C5C270E0D58D8A04B
:1000500006D00E2A100E0C5E270E0D5AF4D7300E65
:100060000F6EE90E0C5C030E0D58D8A006D00F2AB7
:10007000E80E0C5E030E0D5AF4D7300E106E0D50C4
:10008000D8A403D0640E0C6406D0102A640E0C5E53
:10009000000E0D5AF4D7300E116E0D50D8A403D0B7
:1000A0000A0E0C6406D0112A0A0E0C5E000E0D5AC0
:1000B000F4D7300E0C24126E0D0E136E146A070E58
:1000C00014600ED09EA8FED7EA6A0E0E1424E96EC4
:1000D000EFCFADFF080E156E152EFED7142AEFD701
:1000E00012003D0ED76EB00ED66EF294800ED56E15
:1000F0001200166A87DF8CDF81CF01F0F2DF01C0CA
:1001000000F081CF01F0011C0014026E310E166464
:1001100033D0166A8182060E036E032EFED78192BB
:1001200081A4FED7D6CF04F0D7CF05F081A402D0AA
:10013000F2A4FCD7D6CF06F0D7CF07F00450065C68
:10014000086E05500758096EF2B40DD00850570DCF
:10015000F4CF0AF00950570DF3500A26D8B0F42A0C
:10016000F4CF0BF004D0E80E0A6E030E0B6E0AC03B
:100170000CF00BC00DF065DFF2A4FED7162A51DF9C
:02018000BDD7E9
:00000001FF
