:020000040000FA
:1000000074EF00F0939093929384949C948E1200DA
:10001000949C948EAC84190EAF6EAC8AAB88AB8E78
:100020001200186602D0819001D08180182A0A0E31
:100030001860186A1200200E7F6E7F2EFED7120005
:10004000300E0E6E110E0C5C270E0D5806E30E2AB4
:10005000100E0C5E270E0D5AF5D7300E0F6EE90EFE
:100060000C5C030E0D5806E30F2AE80E0C5E030E1F
:100070000D5AF5D7300E106E0D5003E1640E0C646E
:1000800006D0102A640E0C5E000E0D5AF5D7300E05
:10009000116E0D5003E10A0E0C6406D0112A0A0EEF
:1000A0000C5E000E0D5AF5D7300E0C24126E0D0E9C
:1000B000136E146A070E14600ED09EA8FED7EA6A6B
:1000C0000E0E1424E96EEFCFADFF080E156E152E3F
:1000D000FED7142AEFD712003D0ED76EB00ED66EA3
:1000E000F294800ED56E1200166A8CDF91DF81CFFC
:1000F00001F0F2DF01C000F081CF01F0011C00141B
:10010000026E310E166433D0166A8182060E036EBB
:10011000032EFED7819281A4FED7D6CF04F0D7CF8D
:1001200005F081A402D0F2A4FCD7D6CF06F0D7CF39
:1001300007F00450065C086E05500758096EF2B4CB
:100140000DD00850570DF4CF0AF00950570DF35059
:100150000A26D8B0F42AF4CF0BF004D0E80E0A6EC9
:10016000030E0B6E0AC00CF00BC00DF069DFF2A499
:08017000FED7162A56DFBDD7A9
:00000001FF
